{
  "contractName": "CUR",
  "abi": [
    {
      "inputs": [],
      "payable": false,
      "stateMutability": "nonpayable",
      "type": "constructor"
    },
    {
      "anonymous": false,
      "inputs": [
        {
          "indexed": false,
          "name": "model",
          "type": "string"
        },
        {
          "indexed": false,
          "name": "VIN",
          "type": "string"
        },
        {
          "indexed": false,
          "name": "manufaturerAddress",
          "type": "address"
        },
        {
          "indexed": false,
          "name": "dateCreated",
          "type": "uint256"
        },
        {
          "indexed": false,
          "name": "warrantyUntil",
          "type": "uint256"
        }
      ],
      "name": "carCreated",
      "type": "event"
    },
    {
      "anonymous": false,
      "inputs": [
        {
          "indexed": false,
          "name": "VIN",
          "type": "string"
        },
        {
          "indexed": false,
          "name": "repairService",
          "type": "address"
        },
        {
          "indexed": false,
          "name": "authorised",
          "type": "bool"
        },
        {
          "indexed": false,
          "name": "documentLink",
          "type": "string"
        },
        {
          "indexed": false,
          "name": "date",
          "type": "uint256"
        },
        {
          "indexed": false,
          "name": "details",
          "type": "string"
        },
        {
          "indexed": false,
          "name": "mileage",
          "type": "uint256"
        }
      ],
      "name": "carRepaired",
      "type": "event"
    },
    {
      "anonymous": false,
      "inputs": [
        {
          "indexed": false,
          "name": "_address",
          "type": "address"
        },
        {
          "indexed": false,
          "name": "name",
          "type": "string"
        },
        {
          "indexed": false,
          "name": "logo",
          "type": "string"
        }
      ],
      "name": "manufacturerCreated",
      "type": "event"
    },
    {
      "anonymous": false,
      "inputs": [
        {
          "indexed": false,
          "name": "name",
          "type": "string"
        },
        {
          "indexed": false,
          "name": "serviceAddress",
          "type": "string"
        }
      ],
      "name": "serviceCreated",
      "type": "event"
    },
    {
      "anonymous": false,
      "inputs": [
        {
          "indexed": false,
          "name": "serviceAddress",
          "type": "address"
        },
        {
          "indexed": false,
          "name": "manufaturerAddress",
          "type": "address"
        }
      ],
      "name": "serviceAuthorized",
      "type": "event"
    },
    {
      "anonymous": false,
      "inputs": [
        {
          "indexed": false,
          "name": "VIN",
          "type": "string"
        }
      ],
      "name": "warrantyCanceled",
      "type": "event"
    },
    {
      "constant": true,
      "inputs": [],
      "name": "isContractOwner",
      "outputs": [
        {
          "name": "",
          "type": "bool"
        }
      ],
      "payable": false,
      "stateMutability": "view",
      "type": "function"
    },
    {
      "constant": true,
      "inputs": [],
      "name": "isManufacturerAddress",
      "outputs": [
        {
          "name": "",
          "type": "bool"
        }
      ],
      "payable": false,
      "stateMutability": "view",
      "type": "function"
    },
    {
      "constant": true,
      "inputs": [],
      "name": "isServiceAddress",
      "outputs": [
        {
          "name": "",
          "type": "bool"
        }
      ],
      "payable": false,
      "stateMutability": "view",
      "type": "function"
    },
    {
      "constant": false,
      "inputs": [
        {
          "name": "_address",
          "type": "address"
        },
        {
          "name": "_name",
          "type": "string"
        },
        {
          "name": "_logo",
          "type": "string"
        }
      ],
      "name": "createManufacturer",
      "outputs": [],
      "payable": false,
      "stateMutability": "nonpayable",
      "type": "function"
    },
    {
      "constant": false,
      "inputs": [
        {
          "name": "_model",
          "type": "string"
        },
        {
          "name": "_VIN",
          "type": "string"
        }
      ],
      "name": "newCar",
      "outputs": [],
      "payable": false,
      "stateMutability": "nonpayable",
      "type": "function"
    },
    {
      "constant": false,
      "inputs": [
        {
          "name": "_name",
          "type": "string"
        },
        {
          "name": "_serviceAddress",
          "type": "string"
        }
      ],
      "name": "newService",
      "outputs": [],
      "payable": false,
      "stateMutability": "nonpayable",
      "type": "function"
    },
    {
      "constant": false,
      "inputs": [
        {
          "name": "_serviceAddress",
          "type": "address"
        }
      ],
      "name": "verifyService",
      "outputs": [],
      "payable": false,
      "stateMutability": "nonpayable",
      "type": "function"
    },
    {
      "constant": false,
      "inputs": [
        {
          "name": "_carVIN",
          "type": "string"
        },
        {
          "name": "documentLink",
          "type": "string"
        },
        {
          "name": "_details",
          "type": "string"
        },
        {
          "name": "mileage",
          "type": "uint256"
        }
      ],
      "name": "repairCar",
      "outputs": [],
      "payable": false,
      "stateMutability": "nonpayable",
      "type": "function"
    }
  ],
  "bytecode": "0x608060405234801561001057600080fd5b50336000806101000a81548173ffffffffffffffffffffffffffffffffffffffff021916908373ffffffffffffffffffffffffffffffffffffffff160217905550611674806100606000396000f30060806040526004361061008e576000357c0100000000000000000000000000000000000000000000000000000000900463ffffffff168063138a5474146100935780636bc3b437146101925780637f7dcdbf146102415780638f14056814610270578063949319b11461029f578063ba622884146102e2578063c3c7fd5a14610311578063d533e8b3146103e0575b600080fd5b34801561009f57600080fd5b50610190600480360381019080803590602001908201803590602001908080601f0160208091040260200160405190810160405280939291908181526020018383808284378201915050505050509192919290803590602001908201803590602001908080601f0160208091040260200160405190810160405280939291908181526020018383808284378201915050505050509192919290803590602001908201803590602001908080601f01602080910402602001604051908101604052809392919081815260200183838082843782019150505050505091929192908035906020019092919050505061048f565b005b34801561019e57600080fd5b5061023f600480360381019080803590602001908201803590602001908080601f0160208091040260200160405190810160405280939291908181526020018383808284378201915050505050509192919290803590602001908201803590602001908080601f01602080910402602001604051908101604052809392919081815260200183838082843782019150505050505091929192905050506108f8565b005b34801561024d57600080fd5b50610256610ca7565b604051808215151515815260200191505060405180910390f35b34801561027c57600080fd5b50610285610cfe565b604051808215151515815260200191505060405180910390f35b3480156102ab57600080fd5b506102e0600480360381019080803573ffffffffffffffffffffffffffffffffffffffff169060200190929190505050610d55565b005b3480156102ee57600080fd5b506102f7610ee2565b604051808215151515815260200191505060405180910390f35b34801561031d57600080fd5b506103de600480360381019080803573ffffffffffffffffffffffffffffffffffffffff169060200190929190803590602001908201803590602001908080601f0160208091040260200160405190810160405280939291908181526020018383808284378201915050505050509192919290803590602001908201803590602001908080601f0160208091040260200160405190810160405280939291908181526020018383808284378201915050505050509192919290505050610f39565b005b3480156103ec57600080fd5b5061048d600480360381019080803590602001908201803590602001908080601f0160208091040260200160405190810160405280939291908181526020018383808284378201915050505050509192919290803590602001908201803590602001908080601f01602080910402602001604051908101604052809392919081815260200183838082843782019150505050505091929192905050506111f3565b005b600080600260003373ffffffffffffffffffffffffffffffffffffffff1673ffffffffffffffffffffffffffffffffffffffff16815260200190815260200160002060020160009054906101000a900460ff1615156104ed57600080fd5b6003866040518082805190602001908083835b6020831015156105255780518252602082019150602081019050602083039250610500565b6001836020036101000a038019825116818451168082178552505050505050905001915050908152602001604051809103902060040160009054906101000a900473ffffffffffffffffffffffffffffffffffffffff169150600260003373ffffffffffffffffffffffffffffffffffffffff1673ffffffffffffffffffffffffffffffffffffffff16815260200190815260200160002060030160008373ffffffffffffffffffffffffffffffffffffffff1673ffffffffffffffffffffffffffffffffffffffff16815260200190815260200160002060009054906101000a900460ff169050801580156106885750426003876040518082805190602001908083835b60208310151561064f578051825260208201915060208101905060208303925061062a565b6001836020036101000a038019825116818451168082178552505050505050905001915050908152602001604051809103902060030154115b1561072a577f3abfdf2757f595508fdc94e65e4772833a3b9c90a2890e9d90ccff8f3aca3ff1866040518080602001828103825283818151815260200191508051906020019080838360005b838110156106ef5780820151818401526020810190506106d4565b50505050905090810190601f16801561071c5780820380516001836020036101000a031916815260200191505b509250505060405180910390a15b7f21edbff45c1741ee7ef104a05ec1c08b4a545b7ebf86987f6efc53e61e3ef51b8633838842898960405180806020018873ffffffffffffffffffffffffffffffffffffffff1673ffffffffffffffffffffffffffffffffffffffff16815260200187151515158152602001806020018681526020018060200185815260200184810384528b818151815260200191508051906020019080838360005b838110156107e25780820151818401526020810190506107c7565b50505050905090810190601f16801561080f5780820380516001836020036101000a031916815260200191505b50848103835288818151815260200191508051906020019080838360005b8381101561084857808201518184015260208101905061082d565b50505050905090810190601f1680156108755780820380516001836020036101000a031916815260200191505b50848103825286818151815260200191508051906020019080838360005b838110156108ae578082015181840152602081019050610893565b50505050905090810190601f1680156108db5780820380516001836020036101000a031916815260200191505b509a505050505050505050505060405180910390a1505050505050565b60001515600260003373ffffffffffffffffffffffffffffffffffffffff1673ffffffffffffffffffffffffffffffffffffffff16815260200190815260200160002060020160009054906101000a900460ff16151514151561095a57600080fd5b60606040519081016040528083815260200182815260200160011515815250600260003373ffffffffffffffffffffffffffffffffffffffff1673ffffffffffffffffffffffffffffffffffffffff16815260200190815260200160002060008201518160000190805190602001906109d49291906115a3565b5060208201518160010190805190602001906109f19291906115a3565b5060408201518160020160006101000a81548160ff021916908315150217905550905050600160003373ffffffffffffffffffffffffffffffffffffffff1673ffffffffffffffffffffffffffffffffffffffff16815260200190815260200160002060020160009054906101000a900460ff1615610b9a576001600260003373ffffffffffffffffffffffffffffffffffffffff1673ffffffffffffffffffffffffffffffffffffffff16815260200190815260200160002060030160003373ffffffffffffffffffffffffffffffffffffffff1673ffffffffffffffffffffffffffffffffffffffff16815260200190815260200160002060006101000a81548160ff0219169083151502179055507f2d3972b1012a9601ea32e0803e7c4abb98ed3e603da3fba113f3957f4f2d34253333604051808373ffffffffffffffffffffffffffffffffffffffff1673ffffffffffffffffffffffffffffffffffffffff1681526020018273ffffffffffffffffffffffffffffffffffffffff1673ffffffffffffffffffffffffffffffffffffffff1681526020019250505060405180910390a15b7fa027e06177c22261f5cbe481d23ef3a1c61a7c66aae872dbf2bc8eebd5f414f18282604051808060200180602001838103835285818151815260200191508051906020019080838360005b83811015610c01578082015181840152602081019050610be6565b50505050905090810190601f168015610c2e5780820380516001836020036101000a031916815260200191505b50838103825284818151815260200191508051906020019080838360005b83811015610c67578082015181840152602081019050610c4c565b50505050905090810190601f168015610c945780820380516001836020036101000a031916815260200191505b5094505050505060405180910390a15050565b60008060009054906101000a900473ffffffffffffffffffffffffffffffffffffffff1673ffffffffffffffffffffffffffffffffffffffff163373ffffffffffffffffffffffffffffffffffffffff1614905090565b6000600260003373ffffffffffffffffffffffffffffffffffffffff1673ffffffffffffffffffffffffffffffffffffffff16815260200190815260200160002060020160009054906101000a900460ff16905090565b600160003373ffffffffffffffffffffffffffffffffffffffff1673ffffffffffffffffffffffffffffffffffffffff16815260200190815260200160002060020160009054906101000a900460ff161515610db057600080fd5b6001600260008373ffffffffffffffffffffffffffffffffffffffff1673ffffffffffffffffffffffffffffffffffffffff16815260200190815260200160002060030160003373ffffffffffffffffffffffffffffffffffffffff1673ffffffffffffffffffffffffffffffffffffffff16815260200190815260200160002060006101000a81548160ff0219169083151502179055507f2d3972b1012a9601ea32e0803e7c4abb98ed3e603da3fba113f3957f4f2d34258133604051808373ffffffffffffffffffffffffffffffffffffffff1673ffffffffffffffffffffffffffffffffffffffff1681526020018273ffffffffffffffffffffffffffffffffffffffff1673ffffffffffffffffffffffffffffffffffffffff1681526020019250505060405180910390a150565b6000600160003373ffffffffffffffffffffffffffffffffffffffff1673ffffffffffffffffffffffffffffffffffffffff16815260200190815260200160002060020160009054906101000a900460ff16905090565b6000809054906101000a900473ffffffffffffffffffffffffffffffffffffffff1673ffffffffffffffffffffffffffffffffffffffff163373ffffffffffffffffffffffffffffffffffffffff16141515610f9457600080fd5b60001515600160008573ffffffffffffffffffffffffffffffffffffffff1673ffffffffffffffffffffffffffffffffffffffff16815260200190815260200160002060020160009054906101000a900460ff161515141515610ff657600080fd5b60606040519081016040528083815260200182815260200160011515815250600160008573ffffffffffffffffffffffffffffffffffffffff1673ffffffffffffffffffffffffffffffffffffffff16815260200190815260200160002060008201518160000190805190602001906110709291906115a3565b50602082015181600101908051906020019061108d9291906115a3565b5060408201518160020160006101000a81548160ff0219169083151502179055509050507f12cb4e00ef2ec491dee87d92544cf6e8ce2a07afad6d32cc7f9b042cd3b71233838383604051808473ffffffffffffffffffffffffffffffffffffffff1673ffffffffffffffffffffffffffffffffffffffff1681526020018060200180602001838103835285818151815260200191508051906020019080838360005b8381101561114b578082015181840152602081019050611130565b50505050905090810190601f1680156111785780820380516001836020036101000a031916815260200191505b50838103825284818151815260200191508051906020019080838360005b838110156111b1578082015181840152602081019050611196565b50505050905090810190601f1680156111de5780820380516001836020036101000a031916815260200191505b509550505050505060405180910390a1505050565b600160003373ffffffffffffffffffffffffffffffffffffffff1673ffffffffffffffffffffffffffffffffffffffff16815260200190815260200160002060020160009054906101000a900460ff16151561124e57600080fd5b600015156003826040518082805190602001908083835b60208310151561128a5780518252602082019150602081019050602083039250611265565b6001836020036101000a038019825116818451168082178552505050505050905001915050908152602001604051809103902060040160149054906101000a900460ff1615151415156112dc57600080fd5b60c0604051908101604052808381526020018281526020014281526020016301e13380420181526020013373ffffffffffffffffffffffffffffffffffffffff168152602001600115158152506003826040518082805190602001908083835b602083101515611361578051825260208201915060208101905060208303925061133c565b6001836020036101000a038019825116818451168082178552505050505050905001915050908152602001604051809103902060008201518160000190805190602001906113b09291906115a3565b5060208201518160010190805190602001906113cd9291906115a3565b50604082015181600201556060820151816003015560808201518160040160006101000a81548173ffffffffffffffffffffffffffffffffffffffff021916908373ffffffffffffffffffffffffffffffffffffffff16021790555060a08201518160040160146101000a81548160ff0219169083151502179055509050507fada8309b75de8c3a9618b795736288066aa8225a74793a9b779c329c02b33e5e828233426301e1338042016040518080602001806020018673ffffffffffffffffffffffffffffffffffffffff1673ffffffffffffffffffffffffffffffffffffffff168152602001858152602001848152602001838103835288818151815260200191508051906020019080838360005b838110156114fa5780820151818401526020810190506114df565b50505050905090810190601f1680156115275780820380516001836020036101000a031916815260200191505b50838103825287818151815260200191508051906020019080838360005b83811015611560578082015181840152602081019050611545565b50505050905090810190601f16801561158d5780820380516001836020036101000a031916815260200191505b5097505050505050505060405180910390a15050565b828054600181600116156101000203166002900490600052602060002090601f016020900481019282601f106115e457805160ff1916838001178555611612565b82800160010185558215611612579182015b828111156116115782518255916020019190600101906115f6565b5b50905061161f9190611623565b5090565b61164591905b80821115611641576000816000905550600101611629565b5090565b905600a165627a7a72305820c3a4c223a3049b9aef3da7d9dfc034ae11de9cdae66698cef10c2050893dea6f0029",
  "source": "pragma solidity ^0.4.24;\n\ncontract CUR {\n    struct Manufacturer {\n        string name;\n        string logo;\n        bool exists;\n    }\n\n    struct Car {\n        string model;\n        string VIN;\n        uint dateCreated;\n        uint warrantyUntil;\n        address manufacturerAddress;\n        bool exists;\n    }\n\n    struct Service {\n        string name;\n        string serviceAddress;\n        bool exists;\n        mapping(address => bool) authorizedManufacturers;\n    }\n\n    address private owner;\n    mapping(address => Manufacturer) manufacturers;\n    mapping(address => Service) services;\n    mapping(string => Car) cars;\n\n    constructor() public {\n        owner = msg.sender;\n    }\n\n    event carCreated(string model, string VIN, address manufaturerAddress, uint dateCreated, uint warrantyUntil);\n    event carRepaired(string VIN, address repairService, bool authorised, string documentLink, uint date,\n        string details, uint mileage);\n    event manufacturerCreated(address _address, string name, string logo);\n    event serviceCreated(string name, string serviceAddress);\n    event serviceAuthorized(address serviceAddress, address manufaturerAddress);\n    event warrantyCanceled(string VIN);\n\n    modifier isOwner() {\n        require(msg.sender == owner);\n        _;\n    }\n\n    modifier isManufacturer() {\n        require(manufacturers[msg.sender].exists);\n        _;\n    }\n\n    modifier isService() {\n        require(services[msg.sender].exists);\n        _;\n    }\n\n    function isContractOwner() view public returns (bool) {\n        return msg.sender == owner;\n    }\n\n    function isManufacturerAddress() view public returns (bool) {\n        return manufacturers[msg.sender].exists;\n    }\n\n    function isServiceAddress() view public returns (bool) {\n        return services[msg.sender].exists;\n    }\n\n    function createManufacturer(address _address, string _name, string _logo) isOwner public {\n        require(manufacturers[_address].exists == false);\n        manufacturers[_address] = Manufacturer({name : _name, exists : true, logo : _logo});\n        emit manufacturerCreated(_address, _name, _logo);\n    }\n\n    function newCar(string _model, string _VIN) public isManufacturer {\n        require(cars[_VIN].exists == false);\n        cars[_VIN] = Car({\n            model : _model,\n            VIN : _VIN,\n            manufacturerAddress : msg.sender,\n            exists : true,\n            dateCreated : now,\n            warrantyUntil : now + 365 days\n            });\n        emit carCreated(_model, _VIN, msg.sender, now, now + 365 days);\n    }\n\n    function newService(string _name, string _serviceAddress) public {\n        require(services[msg.sender].exists == false);\n        services[msg.sender] = Service({name : _name, exists : true, serviceAddress : _serviceAddress});\n        if(manufacturers[msg.sender].exists) {\n            services[msg.sender].authorizedManufacturers[msg.sender] = true;\n            emit serviceAuthorized(msg.sender, msg.sender);\n        }\n        emit serviceCreated(_name, _serviceAddress);\n    }\n\n    function verifyService(address _serviceAddress) public isManufacturer {\n        services[_serviceAddress].authorizedManufacturers[msg.sender] = true;\n        emit serviceAuthorized(_serviceAddress, msg.sender);\n    }\n\n    function repairCar(string _carVIN, string documentLink, string _details, uint mileage) isService public {\n        address carManufacturer = cars[_carVIN].manufacturerAddress;\n        bool isAuthorizedService = services[msg.sender].authorizedManufacturers[carManufacturer];\n        if (!isAuthorizedService && cars[_carVIN].warrantyUntil > block.timestamp) {\n            emit warrantyCanceled(_carVIN);\n        }\n        emit carRepaired(_carVIN, msg.sender, isAuthorizedService, documentLink, block.timestamp,\n            _details, mileage);\n    }\n}",
  "sourcePath": "/Users/production/dApp/contracts/CUR.sol",
  "compiler": {
    "name": "solc",
    "version": "0.4.24+commit.e67f0147.Emscripten.clang"
  },
  "schemaVersion": "2.0.1",
  "updatedAt": "2018-07-13T09:35:20.729Z"
}