{
  "contractName": "CUR",
  "abi": [
    {
      "inputs": [],
      "payable": false,
      "stateMutability": "nonpayable",
      "type": "constructor"
    },
    {
      "anonymous": false,
      "inputs": [
        {
          "indexed": false,
          "name": "VIN",
          "type": "string"
        },
        {
          "indexed": false,
          "name": "repairService",
          "type": "address"
        },
        {
          "indexed": false,
          "name": "authorised",
          "type": "bool"
        }
      ],
      "name": "carRepaired",
      "type": "event"
    },
    {
      "anonymous": false,
      "inputs": [
        {
          "indexed": false,
          "name": "name",
          "type": "string"
        }
      ],
      "name": "manufacturerCreated",
      "type": "event"
    },
    {
      "anonymous": false,
      "inputs": [
        {
          "indexed": false,
          "name": "name",
          "type": "string"
        }
      ],
      "name": "serviceCreated",
      "type": "event"
    },
    {
      "anonymous": false,
      "inputs": [
        {
          "indexed": false,
          "name": "model",
          "type": "string"
        },
        {
          "indexed": false,
          "name": "VIN",
          "type": "string"
        },
        {
          "indexed": false,
          "name": "manufaturerAddress",
          "type": "address"
        }
      ],
      "name": "carCreated",
      "type": "event"
    },
    {
      "anonymous": false,
      "inputs": [
        {
          "indexed": false,
          "name": "serviceAddress",
          "type": "address"
        },
        {
          "indexed": false,
          "name": "manufaturerAddress",
          "type": "address"
        }
      ],
      "name": "serviceAuthorized",
      "type": "event"
    },
    {
      "anonymous": false,
      "inputs": [
        {
          "indexed": false,
          "name": "carVIN",
          "type": "string"
        },
        {
          "indexed": false,
          "name": "newOwnerName",
          "type": "string"
        }
      ],
      "name": "carSold",
      "type": "event"
    },
    {
      "constant": false,
      "inputs": [
        {
          "name": "_address",
          "type": "address"
        },
        {
          "name": "_name",
          "type": "string"
        }
      ],
      "name": "createManufacturer",
      "outputs": [],
      "payable": false,
      "stateMutability": "nonpayable",
      "type": "function"
    },
    {
      "constant": false,
      "inputs": [
        {
          "name": "_model",
          "type": "string"
        },
        {
          "name": "_VIN",
          "type": "string"
        }
      ],
      "name": "newCar",
      "outputs": [],
      "payable": false,
      "stateMutability": "nonpayable",
      "type": "function"
    },
    {
      "constant": false,
      "inputs": [
        {
          "name": "_name",
          "type": "string"
        }
      ],
      "name": "newService",
      "outputs": [],
      "payable": false,
      "stateMutability": "nonpayable",
      "type": "function"
    },
    {
      "constant": false,
      "inputs": [
        {
          "name": "_serviceAddress",
          "type": "address"
        }
      ],
      "name": "verifyService",
      "outputs": [],
      "payable": false,
      "stateMutability": "nonpayable",
      "type": "function"
    },
    {
      "constant": false,
      "inputs": [
        {
          "name": "_carVIN",
          "type": "string"
        },
        {
          "name": "_carOwnerName",
          "type": "string"
        }
      ],
      "name": "sellCar",
      "outputs": [],
      "payable": false,
      "stateMutability": "nonpayable",
      "type": "function"
    },
    {
      "constant": false,
      "inputs": [
        {
          "name": "_carVIN",
          "type": "string"
        },
        {
          "name": "_serviceAddress",
          "type": "address"
        }
      ],
      "name": "repairCar",
      "outputs": [],
      "payable": false,
      "stateMutability": "nonpayable",
      "type": "function"
    }
  ],
  "bytecode": "0x608060405234801561001057600080fd5b50336000806101000a81548173ffffffffffffffffffffffffffffffffffffffff021916908373ffffffffffffffffffffffffffffffffffffffff160217905550611178806100606000396000f300608060405260043610610078576000357c0100000000000000000000000000000000000000000000000000000000900463ffffffff168063285982d71461007d5780636adecddf14610106578063949319b1146101b5578063b3885148146101f8578063d533e8b314610281578063e57d61c614610330575b600080fd5b34801561008957600080fd5b50610104600480360381019080803573ffffffffffffffffffffffffffffffffffffffff169060200190929190803590602001908201803590602001908080601f0160208091040260200160405190810160405280939291908181526020018383808284378201915050505050509192919290505050610399565b005b34801561011257600080fd5b506101b3600480360381019080803590602001908201803590602001908080601f0160208091040260200160405190810160405280939291908181526020018383808284378201915050505050509192919290803590602001908201803590602001908080601f016020809104026020016040519081016040528093929190818152602001838380828437820191505050505050919291929050505061052b565b005b3480156101c157600080fd5b506101f6600480360381019080803573ffffffffffffffffffffffffffffffffffffffff169060200190929190505050610840565b005b34801561020457600080fd5b5061027f600480360381019080803590602001908201803590602001908080601f0160208091040260200160405190810160405280939291908181526020018383808284378201915050505050509192919290803573ffffffffffffffffffffffffffffffffffffffff1690602001909291905050506109cd565b005b34801561028d57600080fd5b5061032e600480360381019080803590602001908201803590602001908080601f0160208091040260200160405190810160405280939291908181526020018383808284378201915050505050509192919290803590602001908201803590602001908080601f0160208091040260200160405190810160405280939291908181526020018383808284378201915050505050509192919290505050610c2d565b005b34801561033c57600080fd5b50610397600480360381019080803590602001908201803590602001908080601f0160208091040260200160405190810160405280939291908181526020018383808284378201915050505050509192919290505050610eea565b005b6000809054906101000a900473ffffffffffffffffffffffffffffffffffffffff1673ffffffffffffffffffffffffffffffffffffffff163373ffffffffffffffffffffffffffffffffffffffff161415156103f457600080fd5b604080519081016040528082815260200160011515815250600160008473ffffffffffffffffffffffffffffffffffffffff1673ffffffffffffffffffffffffffffffffffffffff1681526020019081526020016000206000820151816000019080519060200190610467929190611020565b5060208201518160010160006101000a81548160ff0219169083151502179055509050507fb0b04775ad50a6f5add631bd1835d3e6c57358ef3f225ade548cc4566653a035816040518080602001828103825283818151815260200191508051906020019080838360005b838110156104ed5780820151818401526020810190506104d2565b50505050905090810190601f16801561051a5780820380516001836020036101000a031916815260200191505b509250505060405180910390a15050565b602060405190810160405280828152506003826040518082805190602001908083835b602083101515610573578051825260208201915060208101905060208303925061054e565b6001836020036101000a038019825116818451168082178552505050505050905001915050908152602001604051809103902060008201518160000190805190602001906105c2929190611020565b509050506003816040518082805190602001908083835b6020831015156105fe57805182526020820191506020810190506020830392506105d9565b6001836020036101000a03801982511681845116808217855250505050505090500191505090815260200160405180910390206004836040518082805190602001908083835b6020831015156106695780518252602082019150602081019050602083039250610644565b6001836020036101000a0380198251168184511680821785525050505050509050019150509081526020016040518091039020600201826040518082805190602001908083835b6020831015156106d557805182526020820191506020810190506020830392506106b0565b6001836020036101000a03801982511681845116808217855250505050505090500191505090815260200160405180910390206000820181600001908054600181600116156101000203166002900461072f9291906110a0565b509050507f83fa20a28316f3b6fa320998ee01c22786a0b83b0e0f0e7f1542d96a97f5e7b18282604051808060200180602001838103835285818151815260200191508051906020019080838360005b8381101561079a57808201518184015260208101905061077f565b50505050905090810190601f1680156107c75780820380516001836020036101000a031916815260200191505b50838103825284818151815260200191508051906020019080838360005b838110156108005780820151818401526020810190506107e5565b50505050905090810190601f16801561082d5780820380516001836020036101000a031916815260200191505b5094505050505060405180910390a15050565b600160003373ffffffffffffffffffffffffffffffffffffffff1673ffffffffffffffffffffffffffffffffffffffff16815260200190815260200160002060010160009054906101000a900460ff16151561089b57600080fd5b6001600260008373ffffffffffffffffffffffffffffffffffffffff1673ffffffffffffffffffffffffffffffffffffffff16815260200190815260200160002060020160003373ffffffffffffffffffffffffffffffffffffffff1673ffffffffffffffffffffffffffffffffffffffff16815260200190815260200160002060006101000a81548160ff0219169083151502179055507f2d3972b1012a9601ea32e0803e7c4abb98ed3e603da3fba113f3957f4f2d34258133604051808373ffffffffffffffffffffffffffffffffffffffff1673ffffffffffffffffffffffffffffffffffffffff1681526020018273ffffffffffffffffffffffffffffffffffffffff1673ffffffffffffffffffffffffffffffffffffffff1681526020019250505060405180910390a150565b600080600260003373ffffffffffffffffffffffffffffffffffffffff1673ffffffffffffffffffffffffffffffffffffffff16815260200190815260200160002060010160009054906101000a900460ff161515610a2b57600080fd5b6004846040518082805190602001908083835b602083101515610a635780518252602082019150602081019050602083039250610a3e565b6001836020036101000a038019825116818451168082178552505050505050905001915050908152602001604051809103902060030160009054906101000a900473ffffffffffffffffffffffffffffffffffffffff169150600260003373ffffffffffffffffffffffffffffffffffffffff1673ffffffffffffffffffffffffffffffffffffffff16815260200190815260200160002060020160008373ffffffffffffffffffffffffffffffffffffffff1673ffffffffffffffffffffffffffffffffffffffff16815260200190815260200160002060009054906101000a900460ff1690507f40d440e34bc907a41b2db58a84e5fcba16814c112c3e873e9cc12448464e0e1784848360405180806020018473ffffffffffffffffffffffffffffffffffffffff1673ffffffffffffffffffffffffffffffffffffffff16815260200183151515158152602001828103825285818151815260200191508051906020019080838360005b83811015610beb578082015181840152602081019050610bd0565b50505050905090810190601f168015610c185780820380516001836020036101000a031916815260200191505b5094505050505060405180910390a150505050565b600160003373ffffffffffffffffffffffffffffffffffffffff1673ffffffffffffffffffffffffffffffffffffffff16815260200190815260200160002060010160009054906101000a900460ff161515610c8857600080fd5b6060604051908101604052808381526020018281526020013373ffffffffffffffffffffffffffffffffffffffff168152506004826040518082805190602001908083835b602083101515610cf25780518252602082019150602081019050602083039250610ccd565b6001836020036101000a03801982511681845116808217855250505050505090500191505090815260200160405180910390206000820151816000019080519060200190610d41929190611020565b506020820151816001019080519060200190610d5e929190611020565b5060408201518160030160006101000a81548173ffffffffffffffffffffffffffffffffffffffff021916908373ffffffffffffffffffffffffffffffffffffffff1602179055509050507f8dc6c4eb2f5d3d52b75e32cc46618df64df74e895a8662640e5e127dce2657b98282336040518080602001806020018473ffffffffffffffffffffffffffffffffffffffff1673ffffffffffffffffffffffffffffffffffffffff168152602001838103835286818151815260200191508051906020019080838360005b83811015610e43578082015181840152602081019050610e28565b50505050905090810190601f168015610e705780820380516001836020036101000a031916815260200191505b50838103825285818151815260200191508051906020019080838360005b83811015610ea9578082015181840152602081019050610e8e565b50505050905090810190601f168015610ed65780820380516001836020036101000a031916815260200191505b509550505050505060405180910390a15050565b604080519081016040528082815260200160011515815250600260003373ffffffffffffffffffffffffffffffffffffffff1673ffffffffffffffffffffffffffffffffffffffff1681526020019081526020016000206000820151816000019080519060200190610f5d929190611020565b5060208201518160010160006101000a81548160ff0219169083151502179055509050507f0725855d9f6079b6055c84596852ab37b25e88a70077b4ce145b714da69952e5816040518080602001828103825283818151815260200191508051906020019080838360005b83811015610fe3578082015181840152602081019050610fc8565b50505050905090810190601f1680156110105780820380516001836020036101000a031916815260200191505b509250505060405180910390a150565b828054600181600116156101000203166002900490600052602060002090601f016020900481019282601f1061106157805160ff191683800117855561108f565b8280016001018555821561108f579182015b8281111561108e578251825591602001919060010190611073565b5b50905061109c9190611127565b5090565b828054600181600116156101000203166002900490600052602060002090601f016020900481019282601f106110d95780548555611116565b8280016001018555821561111657600052602060002091601f016020900482015b828111156111155782548255916001019190600101906110fa565b5b5090506111239190611127565b5090565b61114991905b8082111561114557600081600090555060010161112d565b5090565b905600a165627a7a723058205a143d5e9b98b6e82bc0368945845c6fa1a85f04e9207fc7d904edffb98f25440029",
  "source": "pragma solidity ^0.4.24;\n\ncontract CUR {\n    struct Manufacturer {\n        string name;\n        bool exists;\n        // mapping(string => Car) cars;\n    }\n\n    struct CarOwner {\n        string name;\n    }\n\n    struct Car {\n        string model;\n        string VIN;\n        mapping (string => CarOwner) owners;\n        address manufacturerAddress;\n    }\n\n    struct Service {\n        string name;\n        bool exists;\n        mapping(address => bool) authorizedManufaturers;\n    }\n    address private owner;\n    mapping (address => Manufacturer) manufacturers;\n    mapping (address => Service) services;\n    mapping (string => CarOwner) owners;\n    mapping (string => Car) cars;\n\n    constructor() public {\n        owner = msg.sender;\n    }\n\n    event carRepaired(string VIN, address repairService, bool authorised);\n    event manufacturerCreated(string name);\n    event serviceCreated(string name);\n    event carCreated(string model, string VIN, address manufaturerAddress);\n    event serviceAuthorized(address serviceAddress, address manufaturerAddress);\n    event carSold(string carVIN, string newOwnerName);\n\n    modifier isOwner() {\n        require(msg.sender == owner);\n        _;\n    }\n\n    modifier isManufacturer() {\n        require(manufacturers[msg.sender].exists);\n        _;\n    }\n\n    modifier isService() {\n        require(services[msg.sender].exists);\n        _;\n    }\n\n    function createManufacturer(address _address, string _name) isOwner public {\n        manufacturers[_address] = Manufacturer({name: _name, exists: true});\n        emit manufacturerCreated(_name);\n    }\n\n    function newCar(string _model, string _VIN) public isManufacturer {\n        cars[_VIN] = Car({model: _model, VIN: _VIN, manufacturerAddress: msg.sender});\n        emit carCreated(_model, _VIN, msg.sender);\n    }\n\n    function newService(string _name) public {\n        services[msg.sender] = Service({name: _name, exists: true});\n        emit serviceCreated(_name);\n    }\n\n    function verifyService(address _serviceAddress) public isManufacturer {\n        services[_serviceAddress].authorizedManufaturers[msg.sender] = true;\n        emit serviceAuthorized(_serviceAddress, msg.sender);\n    }\n\n    function sellCar(string _carVIN, string _carOwnerName) public {\n        owners[_carOwnerName] = CarOwner({name: _carOwnerName});\n        cars[_carVIN].owners[_carOwnerName] = owners[_carOwnerName];\n        emit carSold(_carVIN, _carOwnerName);\n    }\n\n    function repairCar(string _carVIN, address _serviceAddress) isService public {\n        address carManufaturer = cars[_carVIN].manufacturerAddress;\n        bool isAuthorizedService = services[msg.sender].authorizedManufaturers[carManufaturer];\n        emit carRepaired(_carVIN, _serviceAddress, isAuthorizedService);\n    }\n}",
  "sourcePath": "/Users/production/dApp/contracts/CUR.sol",
  "compiler": {
    "name": "solc",
    "version": "0.4.24+commit.e67f0147.Emscripten.clang"
  },
  "schemaVersion": "2.0.1",
  "updatedAt": "2018-07-10T11:12:58.910Z"
}