{
  "contractName": "CUR",
  "abi": [
    {
      "inputs": [],
      "payable": false,
      "stateMutability": "nonpayable",
      "type": "constructor"
    },
    {
      "anonymous": false,
      "inputs": [
        {
          "indexed": false,
          "name": "VIN",
          "type": "string"
        },
        {
          "indexed": false,
          "name": "repairService",
          "type": "address"
        },
        {
          "indexed": false,
          "name": "authorised",
          "type": "bool"
        },
        {
          "indexed": false,
          "name": "documentLink",
          "type": "string"
        }
      ],
      "name": "carRepaired",
      "type": "event"
    },
    {
      "anonymous": false,
      "inputs": [
        {
          "indexed": false,
          "name": "_address",
          "type": "address"
        },
        {
          "indexed": false,
          "name": "name",
          "type": "string"
        },
        {
          "indexed": false,
          "name": "logo",
          "type": "string"
        }
      ],
      "name": "manufacturerCreated",
      "type": "event"
    },
    {
      "anonymous": false,
      "inputs": [
        {
          "indexed": false,
          "name": "name",
          "type": "string"
        },
        {
          "indexed": false,
          "name": "serviceAddress",
          "type": "string"
        }
      ],
      "name": "serviceCreated",
      "type": "event"
    },
    {
      "anonymous": false,
      "inputs": [
        {
          "indexed": false,
          "name": "model",
          "type": "string"
        },
        {
          "indexed": false,
          "name": "VIN",
          "type": "string"
        },
        {
          "indexed": false,
          "name": "manufaturerAddress",
          "type": "address"
        }
      ],
      "name": "carCreated",
      "type": "event"
    },
    {
      "anonymous": false,
      "inputs": [
        {
          "indexed": false,
          "name": "serviceAddress",
          "type": "address"
        },
        {
          "indexed": false,
          "name": "manufaturerAddress",
          "type": "address"
        }
      ],
      "name": "serviceAuthorized",
      "type": "event"
    },
    {
      "constant": true,
      "inputs": [],
      "name": "isContractOwner",
      "outputs": [
        {
          "name": "",
          "type": "bool"
        }
      ],
      "payable": false,
      "stateMutability": "view",
      "type": "function"
    },
    {
      "constant": true,
      "inputs": [],
      "name": "isManufacturerAddress",
      "outputs": [
        {
          "name": "",
          "type": "bool"
        }
      ],
      "payable": false,
      "stateMutability": "view",
      "type": "function"
    },
    {
      "constant": true,
      "inputs": [],
      "name": "isServiceAddress",
      "outputs": [
        {
          "name": "",
          "type": "bool"
        }
      ],
      "payable": false,
      "stateMutability": "view",
      "type": "function"
    },
    {
      "constant": false,
      "inputs": [
        {
          "name": "_address",
          "type": "address"
        },
        {
          "name": "_name",
          "type": "string"
        },
        {
          "name": "_logo",
          "type": "string"
        }
      ],
      "name": "createManufacturer",
      "outputs": [],
      "payable": false,
      "stateMutability": "nonpayable",
      "type": "function"
    },
    {
      "constant": false,
      "inputs": [
        {
          "name": "_model",
          "type": "string"
        },
        {
          "name": "_VIN",
          "type": "string"
        }
      ],
      "name": "newCar",
      "outputs": [],
      "payable": false,
      "stateMutability": "nonpayable",
      "type": "function"
    },
    {
      "constant": false,
      "inputs": [
        {
          "name": "_name",
          "type": "string"
        },
        {
          "name": "_serviceAddress",
          "type": "string"
        }
      ],
      "name": "newService",
      "outputs": [],
      "payable": false,
      "stateMutability": "nonpayable",
      "type": "function"
    },
    {
      "constant": false,
      "inputs": [
        {
          "name": "_serviceAddress",
          "type": "address"
        }
      ],
      "name": "verifyService",
      "outputs": [],
      "payable": false,
      "stateMutability": "nonpayable",
      "type": "function"
    },
    {
      "constant": false,
      "inputs": [
        {
          "name": "_carVIN",
          "type": "string"
        },
        {
          "name": "_serviceAddress",
          "type": "address"
        },
        {
          "name": "documentLink",
          "type": "string"
        }
      ],
      "name": "repairCar",
      "outputs": [],
      "payable": false,
      "stateMutability": "nonpayable",
      "type": "function"
    }
  ],
  "bytecode": "0x608060405234801561001057600080fd5b50336000806101000a81548173ffffffffffffffffffffffffffffffffffffffff021916908373ffffffffffffffffffffffffffffffffffffffff1602179055506112e8806100606000396000f30060806040526004361061008e576000357c0100000000000000000000000000000000000000000000000000000000900463ffffffff1680636a7bff94146100935780636bc3b437146101625780637f7dcdbf146102115780638f14056814610240578063949319b11461026f578063ba622884146102b2578063c3c7fd5a146102e1578063d533e8b3146103b0575b600080fd5b34801561009f57600080fd5b50610160600480360381019080803590602001908201803590602001908080601f0160208091040260200160405190810160405280939291908181526020018383808284378201915050505050509192919290803573ffffffffffffffffffffffffffffffffffffffff169060200190929190803590602001908201803590602001908080601f016020809104026020016040519081016040528093929190818152602001838380828437820191505050505050919291929050505061045f565b005b34801561016e57600080fd5b5061020f600480360381019080803590602001908201803590602001908080601f0160208091040260200160405190810160405280939291908181526020018383808284378201915050505050509192919290803590602001908201803590602001908080601f016020809104026020016040519081016040528093929190818152602001838380828437820191505050505050919291929050505061072d565b005b34801561021d57600080fd5b50610226610957565b604051808215151515815260200191505060405180910390f35b34801561024c57600080fd5b506102556109ae565b604051808215151515815260200191505060405180910390f35b34801561027b57600080fd5b506102b0600480360381019080803573ffffffffffffffffffffffffffffffffffffffff169060200190929190505050610a05565b005b3480156102be57600080fd5b506102c7610b92565b604051808215151515815260200191505060405180910390f35b3480156102ed57600080fd5b506103ae600480360381019080803573ffffffffffffffffffffffffffffffffffffffff169060200190929190803590602001908201803590602001908080601f0160208091040260200160405190810160405280939291908181526020018383808284378201915050505050509192919290803590602001908201803590602001908080601f0160208091040260200160405190810160405280939291908181526020018383808284378201915050505050509192919290505050610be9565b005b3480156103bc57600080fd5b5061045d600480360381019080803590602001908201803590602001908080601f0160208091040260200160405190810160405280939291908181526020018383808284378201915050505050509192919290803590602001908201803590602001908080601f0160208091040260200160405190810160405280939291908181526020018383808284378201915050505050509192919290505050610ea3565b005b600080600260003373ffffffffffffffffffffffffffffffffffffffff1673ffffffffffffffffffffffffffffffffffffffff16815260200190815260200160002060020160009054906101000a900460ff1615156104bd57600080fd5b6003856040518082805190602001908083835b6020831015156104f557805182526020820191506020810190506020830392506104d0565b6001836020036101000a038019825116818451168082178552505050505050905001915050908152602001604051809103902060020160009054906101000a900473ffffffffffffffffffffffffffffffffffffffff169150600260003373ffffffffffffffffffffffffffffffffffffffff1673ffffffffffffffffffffffffffffffffffffffff16815260200190815260200160002060030160008373ffffffffffffffffffffffffffffffffffffffff1673ffffffffffffffffffffffffffffffffffffffff16815260200190815260200160002060009054906101000a900460ff1690507f65a9f47fa1de56022a997438da86e68b35030f68e4c91ea7f33726dc277ad7548585838660405180806020018573ffffffffffffffffffffffffffffffffffffffff1673ffffffffffffffffffffffffffffffffffffffff1681526020018415151515815260200180602001838103835287818151815260200191508051906020019080838360005b83811015610682578082015181840152602081019050610667565b50505050905090810190601f1680156106af5780820380516001836020036101000a031916815260200191505b50838103825284818151815260200191508051906020019080838360005b838110156106e85780820151818401526020810190506106cd565b50505050905090810190601f1680156107155780820380516001836020036101000a031916815260200191505b50965050505050505060405180910390a15050505050565b60001515600260003373ffffffffffffffffffffffffffffffffffffffff1673ffffffffffffffffffffffffffffffffffffffff16815260200190815260200160002060020160009054906101000a900460ff16151514151561078f57600080fd5b60606040519081016040528083815260200182815260200160011515815250600260003373ffffffffffffffffffffffffffffffffffffffff1673ffffffffffffffffffffffffffffffffffffffff1681526020019081526020016000206000820151816000019080519060200190610809929190611217565b506020820151816001019080519060200190610826929190611217565b5060408201518160020160006101000a81548160ff0219169083151502179055509050507fa027e06177c22261f5cbe481d23ef3a1c61a7c66aae872dbf2bc8eebd5f414f18282604051808060200180602001838103835285818151815260200191508051906020019080838360005b838110156108b1578082015181840152602081019050610896565b50505050905090810190601f1680156108de5780820380516001836020036101000a031916815260200191505b50838103825284818151815260200191508051906020019080838360005b838110156109175780820151818401526020810190506108fc565b50505050905090810190601f1680156109445780820380516001836020036101000a031916815260200191505b5094505050505060405180910390a15050565b60008060009054906101000a900473ffffffffffffffffffffffffffffffffffffffff1673ffffffffffffffffffffffffffffffffffffffff163373ffffffffffffffffffffffffffffffffffffffff1614905090565b6000600260003373ffffffffffffffffffffffffffffffffffffffff1673ffffffffffffffffffffffffffffffffffffffff16815260200190815260200160002060020160009054906101000a900460ff16905090565b600160003373ffffffffffffffffffffffffffffffffffffffff1673ffffffffffffffffffffffffffffffffffffffff16815260200190815260200160002060010160009054906101000a900460ff161515610a6057600080fd5b6001600260008373ffffffffffffffffffffffffffffffffffffffff1673ffffffffffffffffffffffffffffffffffffffff16815260200190815260200160002060030160003373ffffffffffffffffffffffffffffffffffffffff1673ffffffffffffffffffffffffffffffffffffffff16815260200190815260200160002060006101000a81548160ff0219169083151502179055507f2d3972b1012a9601ea32e0803e7c4abb98ed3e603da3fba113f3957f4f2d34258133604051808373ffffffffffffffffffffffffffffffffffffffff1673ffffffffffffffffffffffffffffffffffffffff1681526020018273ffffffffffffffffffffffffffffffffffffffff1673ffffffffffffffffffffffffffffffffffffffff1681526020019250505060405180910390a150565b6000600160003373ffffffffffffffffffffffffffffffffffffffff1673ffffffffffffffffffffffffffffffffffffffff16815260200190815260200160002060010160009054906101000a900460ff16905090565b6000809054906101000a900473ffffffffffffffffffffffffffffffffffffffff1673ffffffffffffffffffffffffffffffffffffffff163373ffffffffffffffffffffffffffffffffffffffff16141515610c4457600080fd5b60001515600160008573ffffffffffffffffffffffffffffffffffffffff1673ffffffffffffffffffffffffffffffffffffffff16815260200190815260200160002060010160009054906101000a900460ff161515141515610ca657600080fd5b60606040519081016040528083815260200160011515815260200182815250600160008573ffffffffffffffffffffffffffffffffffffffff1673ffffffffffffffffffffffffffffffffffffffff1681526020019081526020016000206000820151816000019080519060200190610d20929190611217565b5060208201518160010160006101000a81548160ff0219169083151502179055506040820151816002019080519060200190610d5d929190611217565b509050507f12cb4e00ef2ec491dee87d92544cf6e8ce2a07afad6d32cc7f9b042cd3b71233838383604051808473ffffffffffffffffffffffffffffffffffffffff1673ffffffffffffffffffffffffffffffffffffffff1681526020018060200180602001838103835285818151815260200191508051906020019080838360005b83811015610dfb578082015181840152602081019050610de0565b50505050905090810190601f168015610e285780820380516001836020036101000a031916815260200191505b50838103825284818151815260200191508051906020019080838360005b83811015610e61578082015181840152602081019050610e46565b50505050905090810190601f168015610e8e5780820380516001836020036101000a031916815260200191505b509550505050505060405180910390a1505050565b600160003373ffffffffffffffffffffffffffffffffffffffff1673ffffffffffffffffffffffffffffffffffffffff16815260200190815260200160002060010160009054906101000a900460ff161515610efe57600080fd5b600015156003826040518082805190602001908083835b602083101515610f3a5780518252602082019150602081019050602083039250610f15565b6001836020036101000a038019825116818451168082178552505050505050905001915050908152602001604051809103902060020160149054906101000a900460ff161515141515610f8c57600080fd5b6080604051908101604052808381526020018281526020013373ffffffffffffffffffffffffffffffffffffffff168152602001600115158152506003826040518082805190602001908083835b602083101515610fff5780518252602082019150602081019050602083039250610fda565b6001836020036101000a0380198251168184511680821785525050505050509050019150509081526020016040518091039020600082015181600001908051906020019061104e929190611217565b50602082015181600101908051906020019061106b929190611217565b5060408201518160020160006101000a81548173ffffffffffffffffffffffffffffffffffffffff021916908373ffffffffffffffffffffffffffffffffffffffff16021790555060608201518160020160146101000a81548160ff0219169083151502179055509050507f8dc6c4eb2f5d3d52b75e32cc46618df64df74e895a8662640e5e127dce2657b98282336040518080602001806020018473ffffffffffffffffffffffffffffffffffffffff1673ffffffffffffffffffffffffffffffffffffffff168152602001838103835286818151815260200191508051906020019080838360005b83811015611170578082015181840152602081019050611155565b50505050905090810190601f16801561119d5780820380516001836020036101000a031916815260200191505b50838103825285818151815260200191508051906020019080838360005b838110156111d65780820151818401526020810190506111bb565b50505050905090810190601f1680156112035780820380516001836020036101000a031916815260200191505b509550505050505060405180910390a15050565b828054600181600116156101000203166002900490600052602060002090601f016020900481019282601f1061125857805160ff1916838001178555611286565b82800160010185558215611286579182015b8281111561128557825182559160200191906001019061126a565b5b5090506112939190611297565b5090565b6112b991905b808211156112b557600081600090555060010161129d565b5090565b905600a165627a7a72305820965620779f36f637ee0e8598964a79cc3177e77c16f604692f7281e346f840df0029",
  "source": "pragma solidity ^0.4.24;\n\ncontract CUR {\n    struct Manufacturer {\n        string name;\n        bool exists;\n        string logo;\n    }\n\n    struct Car {\n        string model;\n        string VIN;\n        address manufacturerAddress;\n        bool exists;\n    }\n\n    struct Service {\n        string name;\n        string serviceAddress;\n        bool exists;\n        mapping(address => bool) authorizedManufacturers;\n    }\n\n    address private owner;\n    mapping (address => Manufacturer) manufacturers;\n    mapping (address => Service) services;\n    mapping (string => Car) cars;\n\n    constructor() public {\n        owner = msg.sender;\n    }\n\n    event carRepaired(string VIN, address repairService, bool authorised, string documentLink);\n    event manufacturerCreated(address _address, string name, string logo);\n    event serviceCreated(string name, string serviceAddress);\n    event carCreated(string model, string VIN, address manufaturerAddress);\n    event serviceAuthorized(address serviceAddress, address manufaturerAddress);\n\n    modifier isOwner() {\n        require(msg.sender == owner);\n        _;\n    }\n\n    modifier isManufacturer() {\n        require(manufacturers[msg.sender].exists);\n        _;\n    }\n\n    modifier isService() {\n        require(services[msg.sender].exists);\n        _;\n    }\n\n    function isContractOwner() view public returns(bool) {\n        return msg.sender == owner;\n    }\n\n    function isManufacturerAddress() view public returns(bool) {\n        return manufacturers[msg.sender].exists;\n    }\n\n    function isServiceAddress() view public returns(bool) {\n        return services[msg.sender].exists;\n    }\n\n    function createManufacturer(address _address, string _name, string _logo) isOwner public {\n        require(manufacturers[_address].exists == false);\n        manufacturers[_address] = Manufacturer({name: _name, exists: true, logo: _logo});\n        emit manufacturerCreated(_address, _name, _logo);\n    }\n\n    function newCar(string _model, string _VIN) public isManufacturer {\n        require(cars[_VIN].exists == false);\n        cars[_VIN] = Car({model: _model, VIN: _VIN, manufacturerAddress: msg.sender, exists: true});\n        emit carCreated(_model, _VIN, msg.sender);\n    }\n\n    function newService(string _name, string _serviceAddress) public {\n        require(services[msg.sender].exists == false);\n        services[msg.sender] = Service({name: _name, exists: true, serviceAddress: _serviceAddress});\n        emit serviceCreated(_name, _serviceAddress);\n    }\n\n    function verifyService(address _serviceAddress) public isManufacturer {\n        services[_serviceAddress].authorizedManufacturers[msg.sender] = true;\n        emit serviceAuthorized(_serviceAddress, msg.sender);\n    }\n\n    function repairCar(string _carVIN, address _serviceAddress, string documentLink) isService public {\n        address carManufacturer = cars[_carVIN].manufacturerAddress;\n        bool isAuthorizedService = services[msg.sender].authorizedManufacturers[carManufacturer];\n        emit carRepaired(_carVIN, _serviceAddress, isAuthorizedService, documentLink);\n    }\n}",
  "sourcePath": "/Users/production/dApp/contracts/CUR.sol",
  "compiler": {
    "name": "solc",
    "version": "0.4.24+commit.e67f0147.Emscripten.clang"
  },
  "schemaVersion": "2.0.1",
  "updatedAt": "2018-07-12T09:26:43.339Z"
}