{
  "contractName": "CUR",
  "abi": [
    {
      "inputs": [],
      "payable": false,
      "stateMutability": "nonpayable",
      "type": "constructor"
    },
    {
      "anonymous": false,
      "inputs": [
        {
          "indexed": false,
          "name": "VIN",
          "type": "string"
        },
        {
          "indexed": false,
          "name": "repairService",
          "type": "address"
        },
        {
          "indexed": false,
          "name": "authorised",
          "type": "bool"
        }
      ],
      "name": "carRepaired",
      "type": "event"
    },
    {
      "anonymous": false,
      "inputs": [
        {
          "indexed": false,
          "name": "_address",
          "type": "address"
        },
        {
          "indexed": false,
          "name": "name",
          "type": "string"
        },
        {
          "indexed": false,
          "name": "logo",
          "type": "string"
        }
      ],
      "name": "manufacturerCreated",
      "type": "event"
    },
    {
      "anonymous": false,
      "inputs": [
        {
          "indexed": false,
          "name": "name",
          "type": "string"
        }
      ],
      "name": "serviceCreated",
      "type": "event"
    },
    {
      "anonymous": false,
      "inputs": [
        {
          "indexed": false,
          "name": "model",
          "type": "string"
        },
        {
          "indexed": false,
          "name": "VIN",
          "type": "string"
        },
        {
          "indexed": false,
          "name": "manufaturerAddress",
          "type": "address"
        }
      ],
      "name": "carCreated",
      "type": "event"
    },
    {
      "anonymous": false,
      "inputs": [
        {
          "indexed": false,
          "name": "serviceAddress",
          "type": "address"
        },
        {
          "indexed": false,
          "name": "manufaturerAddress",
          "type": "address"
        }
      ],
      "name": "serviceAuthorized",
      "type": "event"
    },
    {
      "anonymous": false,
      "inputs": [
        {
          "indexed": false,
          "name": "carVIN",
          "type": "string"
        },
        {
          "indexed": false,
          "name": "newOwnerName",
          "type": "string"
        }
      ],
      "name": "carSold",
      "type": "event"
    },
    {
      "constant": false,
      "inputs": [
        {
          "name": "_address",
          "type": "address"
        },
        {
          "name": "_name",
          "type": "string"
        },
        {
          "name": "_logo",
          "type": "string"
        }
      ],
      "name": "createManufacturer",
      "outputs": [],
      "payable": false,
      "stateMutability": "nonpayable",
      "type": "function"
    },
    {
      "constant": false,
      "inputs": [
        {
          "name": "_model",
          "type": "string"
        },
        {
          "name": "_VIN",
          "type": "string"
        }
      ],
      "name": "newCar",
      "outputs": [],
      "payable": false,
      "stateMutability": "nonpayable",
      "type": "function"
    },
    {
      "constant": false,
      "inputs": [
        {
          "name": "_name",
          "type": "string"
        }
      ],
      "name": "newService",
      "outputs": [],
      "payable": false,
      "stateMutability": "nonpayable",
      "type": "function"
    },
    {
      "constant": false,
      "inputs": [
        {
          "name": "_serviceAddress",
          "type": "address"
        }
      ],
      "name": "verifyService",
      "outputs": [],
      "payable": false,
      "stateMutability": "nonpayable",
      "type": "function"
    },
    {
      "constant": false,
      "inputs": [
        {
          "name": "_carVIN",
          "type": "string"
        },
        {
          "name": "_carOwnerName",
          "type": "string"
        }
      ],
      "name": "sellCar",
      "outputs": [],
      "payable": false,
      "stateMutability": "nonpayable",
      "type": "function"
    },
    {
      "constant": false,
      "inputs": [
        {
          "name": "_carVIN",
          "type": "string"
        },
        {
          "name": "_serviceAddress",
          "type": "address"
        }
      ],
      "name": "repairCar",
      "outputs": [],
      "payable": false,
      "stateMutability": "nonpayable",
      "type": "function"
    }
  ],
  "bytecode": "0x608060405234801561001057600080fd5b50336000806101000a81548173ffffffffffffffffffffffffffffffffffffffff021916908373ffffffffffffffffffffffffffffffffffffffff160217905550611284806100606000396000f300608060405260043610610078576000357c0100000000000000000000000000000000000000000000000000000000900463ffffffff1680636adecddf1461007d578063949319b11461012c578063b38851481461016f578063c3c7fd5a146101f8578063d533e8b3146102c7578063e57d61c614610376575b600080fd5b34801561008957600080fd5b5061012a600480360381019080803590602001908201803590602001908080601f0160208091040260200160405190810160405280939291908181526020018383808284378201915050505050509192919290803590602001908201803590602001908080601f01602080910402602001604051908101604052809392919081815260200183838082843782019150505050505091929192905050506103df565b005b34801561013857600080fd5b5061016d600480360381019080803573ffffffffffffffffffffffffffffffffffffffff1690602001909291905050506106f4565b005b34801561017b57600080fd5b506101f6600480360381019080803590602001908201803590602001908080601f0160208091040260200160405190810160405280939291908181526020018383808284378201915050505050509192919290803573ffffffffffffffffffffffffffffffffffffffff169060200190929190505050610881565b005b34801561020457600080fd5b506102c5600480360381019080803573ffffffffffffffffffffffffffffffffffffffff169060200190929190803590602001908201803590602001908080601f0160208091040260200160405190810160405280939291908181526020018383808284378201915050505050509192919290803590602001908201803590602001908080601f0160208091040260200160405190810160405280939291908181526020018383808284378201915050505050509192919290505050610ae1565b005b3480156102d357600080fd5b50610374600480360381019080803590602001908201803590602001908080601f0160208091040260200160405190810160405280939291908181526020018383808284378201915050505050509192919290803590602001908201803590602001908080601f0160208091040260200160405190810160405280939291908181526020018383808284378201915050505050509192919290505050610d39565b005b34801561038257600080fd5b506103dd600480360381019080803590602001908201803590602001908080601f0160208091040260200160405190810160405280939291908181526020018383808284378201915050505050509192919290505050610ff6565b005b602060405190810160405280828152506003826040518082805190602001908083835b6020831015156104275780518252602082019150602081019050602083039250610402565b6001836020036101000a0380198251168184511680821785525050505050509050019150509081526020016040518091039020600082015181600001908051906020019061047692919061112c565b509050506003816040518082805190602001908083835b6020831015156104b2578051825260208201915060208101905060208303925061048d565b6001836020036101000a03801982511681845116808217855250505050505090500191505090815260200160405180910390206004836040518082805190602001908083835b60208310151561051d57805182526020820191506020810190506020830392506104f8565b6001836020036101000a0380198251168184511680821785525050505050509050019150509081526020016040518091039020600201826040518082805190602001908083835b6020831015156105895780518252602082019150602081019050602083039250610564565b6001836020036101000a0380198251168184511680821785525050505050509050019150509081526020016040518091039020600082018160000190805460018160011615610100020316600290046105e39291906111ac565b509050507f83fa20a28316f3b6fa320998ee01c22786a0b83b0e0f0e7f1542d96a97f5e7b18282604051808060200180602001838103835285818151815260200191508051906020019080838360005b8381101561064e578082015181840152602081019050610633565b50505050905090810190601f16801561067b5780820380516001836020036101000a031916815260200191505b50838103825284818151815260200191508051906020019080838360005b838110156106b4578082015181840152602081019050610699565b50505050905090810190601f1680156106e15780820380516001836020036101000a031916815260200191505b5094505050505060405180910390a15050565b600160003373ffffffffffffffffffffffffffffffffffffffff1673ffffffffffffffffffffffffffffffffffffffff16815260200190815260200160002060010160009054906101000a900460ff16151561074f57600080fd5b6001600260008373ffffffffffffffffffffffffffffffffffffffff1673ffffffffffffffffffffffffffffffffffffffff16815260200190815260200160002060020160003373ffffffffffffffffffffffffffffffffffffffff1673ffffffffffffffffffffffffffffffffffffffff16815260200190815260200160002060006101000a81548160ff0219169083151502179055507f2d3972b1012a9601ea32e0803e7c4abb98ed3e603da3fba113f3957f4f2d34258133604051808373ffffffffffffffffffffffffffffffffffffffff1673ffffffffffffffffffffffffffffffffffffffff1681526020018273ffffffffffffffffffffffffffffffffffffffff1673ffffffffffffffffffffffffffffffffffffffff1681526020019250505060405180910390a150565b600080600260003373ffffffffffffffffffffffffffffffffffffffff1673ffffffffffffffffffffffffffffffffffffffff16815260200190815260200160002060010160009054906101000a900460ff1615156108df57600080fd5b6004846040518082805190602001908083835b60208310151561091757805182526020820191506020810190506020830392506108f2565b6001836020036101000a038019825116818451168082178552505050505050905001915050908152602001604051809103902060030160009054906101000a900473ffffffffffffffffffffffffffffffffffffffff169150600260003373ffffffffffffffffffffffffffffffffffffffff1673ffffffffffffffffffffffffffffffffffffffff16815260200190815260200160002060020160008373ffffffffffffffffffffffffffffffffffffffff1673ffffffffffffffffffffffffffffffffffffffff16815260200190815260200160002060009054906101000a900460ff1690507f40d440e34bc907a41b2db58a84e5fcba16814c112c3e873e9cc12448464e0e1784848360405180806020018473ffffffffffffffffffffffffffffffffffffffff1673ffffffffffffffffffffffffffffffffffffffff16815260200183151515158152602001828103825285818151815260200191508051906020019080838360005b83811015610a9f578082015181840152602081019050610a84565b50505050905090810190601f168015610acc5780820380516001836020036101000a031916815260200191505b5094505050505060405180910390a150505050565b6000809054906101000a900473ffffffffffffffffffffffffffffffffffffffff1673ffffffffffffffffffffffffffffffffffffffff163373ffffffffffffffffffffffffffffffffffffffff16141515610b3c57600080fd5b60606040519081016040528083815260200160011515815260200182815250600160008573ffffffffffffffffffffffffffffffffffffffff1673ffffffffffffffffffffffffffffffffffffffff1681526020019081526020016000206000820151816000019080519060200190610bb692919061112c565b5060208201518160010160006101000a81548160ff0219169083151502179055506040820151816002019080519060200190610bf392919061112c565b509050507f12cb4e00ef2ec491dee87d92544cf6e8ce2a07afad6d32cc7f9b042cd3b71233838383604051808473ffffffffffffffffffffffffffffffffffffffff1673ffffffffffffffffffffffffffffffffffffffff1681526020018060200180602001838103835285818151815260200191508051906020019080838360005b83811015610c91578082015181840152602081019050610c76565b50505050905090810190601f168015610cbe5780820380516001836020036101000a031916815260200191505b50838103825284818151815260200191508051906020019080838360005b83811015610cf7578082015181840152602081019050610cdc565b50505050905090810190601f168015610d245780820380516001836020036101000a031916815260200191505b509550505050505060405180910390a1505050565b600160003373ffffffffffffffffffffffffffffffffffffffff1673ffffffffffffffffffffffffffffffffffffffff16815260200190815260200160002060010160009054906101000a900460ff161515610d9457600080fd5b6060604051908101604052808381526020018281526020013373ffffffffffffffffffffffffffffffffffffffff168152506004826040518082805190602001908083835b602083101515610dfe5780518252602082019150602081019050602083039250610dd9565b6001836020036101000a03801982511681845116808217855250505050505090500191505090815260200160405180910390206000820151816000019080519060200190610e4d92919061112c565b506020820151816001019080519060200190610e6a92919061112c565b5060408201518160030160006101000a81548173ffffffffffffffffffffffffffffffffffffffff021916908373ffffffffffffffffffffffffffffffffffffffff1602179055509050507f8dc6c4eb2f5d3d52b75e32cc46618df64df74e895a8662640e5e127dce2657b98282336040518080602001806020018473ffffffffffffffffffffffffffffffffffffffff1673ffffffffffffffffffffffffffffffffffffffff168152602001838103835286818151815260200191508051906020019080838360005b83811015610f4f578082015181840152602081019050610f34565b50505050905090810190601f168015610f7c5780820380516001836020036101000a031916815260200191505b50838103825285818151815260200191508051906020019080838360005b83811015610fb5578082015181840152602081019050610f9a565b50505050905090810190601f168015610fe25780820380516001836020036101000a031916815260200191505b509550505050505060405180910390a15050565b604080519081016040528082815260200160011515815250600260003373ffffffffffffffffffffffffffffffffffffffff1673ffffffffffffffffffffffffffffffffffffffff168152602001908152602001600020600082015181600001908051906020019061106992919061112c565b5060208201518160010160006101000a81548160ff0219169083151502179055509050507f0725855d9f6079b6055c84596852ab37b25e88a70077b4ce145b714da69952e5816040518080602001828103825283818151815260200191508051906020019080838360005b838110156110ef5780820151818401526020810190506110d4565b50505050905090810190601f16801561111c5780820380516001836020036101000a031916815260200191505b509250505060405180910390a150565b828054600181600116156101000203166002900490600052602060002090601f016020900481019282601f1061116d57805160ff191683800117855561119b565b8280016001018555821561119b579182015b8281111561119a57825182559160200191906001019061117f565b5b5090506111a89190611233565b5090565b828054600181600116156101000203166002900490600052602060002090601f016020900481019282601f106111e55780548555611222565b8280016001018555821561122257600052602060002091601f016020900482015b82811115611221578254825591600101919060010190611206565b5b50905061122f9190611233565b5090565b61125591905b80821115611251576000816000905550600101611239565b5090565b905600a165627a7a72305820990ee9cef0a09968e70fe378f7b036433b9ede2587275832af0039feca47bfb60029",
  "source": "pragma solidity ^0.4.24;\n\ncontract CUR {\n    struct Manufacturer {\n        string name;\n        bool exists;\n        string logo;\n        // mapping(string => Car) cars;\n    }\n\n    struct CarOwner {\n        string name;\n    }\n\n    struct Car {\n        string model;\n        string VIN;\n        mapping (string => CarOwner) owners;\n        address manufacturerAddress;\n    }\n\n    struct Service {\n        string name;\n        bool exists;\n        mapping(address => bool) authorizedManufaturers;\n    }\n    address private owner;\n    mapping (address => Manufacturer) manufacturers;\n    mapping (address => Service) services;\n    mapping (string => CarOwner) owners;\n    mapping (string => Car) cars;\n\n    constructor() public {\n        owner = msg.sender;\n    }\n\n    event carRepaired(string VIN, address repairService, bool authorised);\n    event manufacturerCreated(address _address, string name, string logo);\n    event serviceCreated(string name);\n    event carCreated(string model, string VIN, address manufaturerAddress);\n    event serviceAuthorized(address serviceAddress, address manufaturerAddress);\n    event carSold(string carVIN, string newOwnerName);\n\n    modifier isOwner() {\n        require(msg.sender == owner);\n        _;\n    }\n\n    modifier isManufacturer() {\n        require(manufacturers[msg.sender].exists);\n        _;\n    }\n\n    modifier isService() {\n        require(services[msg.sender].exists);\n        _;\n    }\n\n    function createManufacturer(address _address, string _name, string _logo) isOwner public {\n        manufacturers[_address] = Manufacturer({name: _name, exists: true, logo: _logo});\n        emit manufacturerCreated(_address, _name, _logo);\n    }\n\n    function newCar(string _model, string _VIN) public isManufacturer {\n        cars[_VIN] = Car({model: _model, VIN: _VIN, manufacturerAddress: msg.sender});\n        emit carCreated(_model, _VIN, msg.sender);\n    }\n\n    function newService(string _name) public {\n        services[msg.sender] = Service({name: _name, exists: true});\n        emit serviceCreated(_name);\n    }\n\n    function verifyService(address _serviceAddress) public isManufacturer {\n        services[_serviceAddress].authorizedManufaturers[msg.sender] = true;\n        emit serviceAuthorized(_serviceAddress, msg.sender);\n    }\n\n    function sellCar(string _carVIN, string _carOwnerName) public {\n        owners[_carOwnerName] = CarOwner({name: _carOwnerName});\n        cars[_carVIN].owners[_carOwnerName] = owners[_carOwnerName];\n        emit carSold(_carVIN, _carOwnerName);\n    }\n\n    function repairCar(string _carVIN, address _serviceAddress) isService public {\n        address carManufaturer = cars[_carVIN].manufacturerAddress;\n        bool isAuthorizedService = services[msg.sender].authorizedManufaturers[carManufaturer];\n        emit carRepaired(_carVIN, _serviceAddress, isAuthorizedService);\n    }\n}",
  "sourcePath": "/Users/production/dApp/contracts/CUR.sol",
  "compiler": {
    "name": "solc",
    "version": "0.4.24+commit.e67f0147.Emscripten.clang"
  },
  "schemaVersion": "2.0.1",
  "updatedAt": "2018-07-10T12:56:40.787Z"
}