{
  "contractName": "CUR",
  "abi": [
    {
      "inputs": [],
      "payable": false,
      "stateMutability": "nonpayable",
      "type": "constructor"
    },
    {
      "anonymous": false,
      "inputs": [
        {
          "indexed": false,
          "name": "model",
          "type": "string"
        },
        {
          "indexed": true,
          "name": "VIN",
          "type": "bytes17"
        },
        {
          "indexed": true,
          "name": "manufaturerAddress",
          "type": "address"
        },
        {
          "indexed": false,
          "name": "dateCreated",
          "type": "uint256"
        },
        {
          "indexed": false,
          "name": "warrantyUntil",
          "type": "uint256"
        }
      ],
      "name": "carCreated",
      "type": "event"
    },
    {
      "anonymous": false,
      "inputs": [
        {
          "indexed": true,
          "name": "VIN",
          "type": "bytes17"
        },
        {
          "indexed": true,
          "name": "repairService",
          "type": "address"
        },
        {
          "indexed": false,
          "name": "authorised",
          "type": "bool"
        },
        {
          "indexed": false,
          "name": "documentLink",
          "type": "string"
        },
        {
          "indexed": false,
          "name": "date",
          "type": "uint256"
        },
        {
          "indexed": false,
          "name": "details",
          "type": "string"
        },
        {
          "indexed": false,
          "name": "mileage",
          "type": "uint256"
        }
      ],
      "name": "carRepaired",
      "type": "event"
    },
    {
      "anonymous": false,
      "inputs": [
        {
          "indexed": true,
          "name": "_address",
          "type": "address"
        },
        {
          "indexed": false,
          "name": "name",
          "type": "string"
        },
        {
          "indexed": false,
          "name": "logo",
          "type": "string"
        }
      ],
      "name": "manufacturerCreated",
      "type": "event"
    },
    {
      "anonymous": false,
      "inputs": [
        {
          "indexed": false,
          "name": "_address",
          "type": "address"
        },
        {
          "indexed": false,
          "name": "name",
          "type": "string"
        },
        {
          "indexed": false,
          "name": "serviceLocation",
          "type": "string"
        }
      ],
      "name": "serviceCreated",
      "type": "event"
    },
    {
      "anonymous": false,
      "inputs": [
        {
          "indexed": true,
          "name": "serviceAddress",
          "type": "address"
        },
        {
          "indexed": true,
          "name": "manufaturerAddress",
          "type": "address"
        }
      ],
      "name": "serviceAuthorized",
      "type": "event"
    },
    {
      "anonymous": false,
      "inputs": [
        {
          "indexed": true,
          "name": "VIN",
          "type": "bytes17"
        }
      ],
      "name": "warrantyCanceled",
      "type": "event"
    },
    {
      "constant": true,
      "inputs": [],
      "name": "isContractOwner",
      "outputs": [
        {
          "name": "",
          "type": "bool"
        }
      ],
      "payable": false,
      "stateMutability": "view",
      "type": "function"
    },
    {
      "constant": true,
      "inputs": [],
      "name": "isManufacturerAddress",
      "outputs": [
        {
          "name": "",
          "type": "bool"
        }
      ],
      "payable": false,
      "stateMutability": "view",
      "type": "function"
    },
    {
      "constant": true,
      "inputs": [],
      "name": "isServiceAddress",
      "outputs": [
        {
          "name": "",
          "type": "bool"
        }
      ],
      "payable": false,
      "stateMutability": "view",
      "type": "function"
    },
    {
      "constant": false,
      "inputs": [
        {
          "name": "_address",
          "type": "address"
        },
        {
          "name": "_name",
          "type": "string"
        },
        {
          "name": "_logo",
          "type": "string"
        }
      ],
      "name": "createManufacturer",
      "outputs": [],
      "payable": false,
      "stateMutability": "nonpayable",
      "type": "function"
    },
    {
      "constant": false,
      "inputs": [
        {
          "name": "_model",
          "type": "string"
        },
        {
          "name": "_VIN",
          "type": "bytes17"
        }
      ],
      "name": "newCar",
      "outputs": [],
      "payable": false,
      "stateMutability": "nonpayable",
      "type": "function"
    },
    {
      "constant": false,
      "inputs": [
        {
          "name": "_name",
          "type": "string"
        },
        {
          "name": "_serviceAddress",
          "type": "string"
        }
      ],
      "name": "newService",
      "outputs": [],
      "payable": false,
      "stateMutability": "nonpayable",
      "type": "function"
    },
    {
      "constant": false,
      "inputs": [
        {
          "name": "_serviceAddress",
          "type": "address"
        }
      ],
      "name": "verifyService",
      "outputs": [],
      "payable": false,
      "stateMutability": "nonpayable",
      "type": "function"
    },
    {
      "constant": false,
      "inputs": [
        {
          "name": "_carVIN",
          "type": "bytes17"
        },
        {
          "name": "documentLink",
          "type": "string"
        },
        {
          "name": "_details",
          "type": "string"
        },
        {
          "name": "mileage",
          "type": "uint256"
        }
      ],
      "name": "repairCar",
      "outputs": [],
      "payable": false,
      "stateMutability": "nonpayable",
      "type": "function"
    }
  ],
  "bytecode": "0x608060405234801561001057600080fd5b50336000806101000a81548173ffffffffffffffffffffffffffffffffffffffff021916908373ffffffffffffffffffffffffffffffffffffffff1602179055506113d8806100606000396000f30060806040526004361061008e576000357c0100000000000000000000000000000000000000000000000000000000900463ffffffff1680636bc3b437146100935780637f7dcdbf146101425780638f14056814610171578063949319b1146101a0578063ba622884146101e3578063c3c7fd5a14610212578063cff13efb146102e1578063e34f947d14610366575b600080fd5b34801561009f57600080fd5b50610140600480360381019080803590602001908201803590602001908080601f0160208091040260200160405190810160405280939291908181526020018383808284378201915050505050509192919290803590602001908201803590602001908080601f016020809104026020016040519081016040528093929190818152602001838380828437820191505050505050919291929050505061043b565b005b34801561014e57600080fd5b506101576107e1565b604051808215151515815260200191505060405180910390f35b34801561017d57600080fd5b50610186610838565b604051808215151515815260200191505060405180910390f35b3480156101ac57600080fd5b506101e1600480360381019080803573ffffffffffffffffffffffffffffffffffffffff16906020019092919050505061088f565b005b3480156101ef57600080fd5b506101f86109df565b604051808215151515815260200191505060405180910390f35b34801561021e57600080fd5b506102df600480360381019080803573ffffffffffffffffffffffffffffffffffffffff169060200190929190803590602001908201803590602001908080601f0160208091040260200160405190810160405280939291908181526020018383808284378201915050505050509192919290803590602001908201803590602001908080601f0160208091040260200160405190810160405280939291908181526020018383808284378201915050505050509192919290505050610a36565b005b3480156102ed57600080fd5b50610364600480360381019080803590602001908201803590602001908080601f016020809104026020016040519081016040528093929190818152602001838380828437820191505050505050919291929080356effffffffffffffffffffffffffffff19169060200190929190505050610cd3565b005b34801561037257600080fd5b5061043960048036038101908080356effffffffffffffffffffffffffffff19169060200190929190803590602001908201803590602001908080601f0160208091040260200160405190810160405280939291908181526020018383808284378201915050505050509192919290803590602001908201803590602001908080601f016020809104026020016040519081016040528093929190818152602001838380828437820191505050505050919291929080359060200190929190505050610fda565b005b60001515600260003373ffffffffffffffffffffffffffffffffffffffff1673ffffffffffffffffffffffffffffffffffffffff16815260200190815260200160002060020160009054906101000a900460ff16151514151561049d57600080fd5b60606040519081016040528083815260200182815260200160011515815250600260003373ffffffffffffffffffffffffffffffffffffffff1673ffffffffffffffffffffffffffffffffffffffff1681526020019081526020016000206000820151816000019080519060200190610517929190611307565b506020820151816001019080519060200190610534929190611307565b5060408201518160020160006101000a81548160ff021916908315150217905550905050600160003373ffffffffffffffffffffffffffffffffffffffff1673ffffffffffffffffffffffffffffffffffffffff16815260200190815260200160002060020160009054906101000a900460ff16156106a0576001600260003373ffffffffffffffffffffffffffffffffffffffff1673ffffffffffffffffffffffffffffffffffffffff16815260200190815260200160002060030160003373ffffffffffffffffffffffffffffffffffffffff1673ffffffffffffffffffffffffffffffffffffffff16815260200190815260200160002060006101000a81548160ff0219169083151502179055503373ffffffffffffffffffffffffffffffffffffffff163373ffffffffffffffffffffffffffffffffffffffff167f2d3972b1012a9601ea32e0803e7c4abb98ed3e603da3fba113f3957f4f2d342560405160405180910390a35b7fc42c71fc0c9498ae8b380b78e0f93fb996fa6ce24ed1edfabec933611e01a0e0338383604051808473ffffffffffffffffffffffffffffffffffffffff1673ffffffffffffffffffffffffffffffffffffffff1681526020018060200180602001838103835285818151815260200191508051906020019080838360005b8381101561073a57808201518184015260208101905061071f565b50505050905090810190601f1680156107675780820380516001836020036101000a031916815260200191505b50838103825284818151815260200191508051906020019080838360005b838110156107a0578082015181840152602081019050610785565b50505050905090810190601f1680156107cd5780820380516001836020036101000a031916815260200191505b509550505050505060405180910390a15050565b60008060009054906101000a900473ffffffffffffffffffffffffffffffffffffffff1673ffffffffffffffffffffffffffffffffffffffff163373ffffffffffffffffffffffffffffffffffffffff1614905090565b6000600260003373ffffffffffffffffffffffffffffffffffffffff1673ffffffffffffffffffffffffffffffffffffffff16815260200190815260200160002060020160009054906101000a900460ff16905090565b600160003373ffffffffffffffffffffffffffffffffffffffff1673ffffffffffffffffffffffffffffffffffffffff16815260200190815260200160002060020160009054906101000a900460ff1615156108ea57600080fd5b6001600260008373ffffffffffffffffffffffffffffffffffffffff1673ffffffffffffffffffffffffffffffffffffffff16815260200190815260200160002060030160003373ffffffffffffffffffffffffffffffffffffffff1673ffffffffffffffffffffffffffffffffffffffff16815260200190815260200160002060006101000a81548160ff0219169083151502179055503373ffffffffffffffffffffffffffffffffffffffff168173ffffffffffffffffffffffffffffffffffffffff167f2d3972b1012a9601ea32e0803e7c4abb98ed3e603da3fba113f3957f4f2d342560405160405180910390a350565b6000600160003373ffffffffffffffffffffffffffffffffffffffff1673ffffffffffffffffffffffffffffffffffffffff16815260200190815260200160002060020160009054906101000a900460ff16905090565b6000809054906101000a900473ffffffffffffffffffffffffffffffffffffffff1673ffffffffffffffffffffffffffffffffffffffff163373ffffffffffffffffffffffffffffffffffffffff16141515610a9157600080fd5b60001515600160008573ffffffffffffffffffffffffffffffffffffffff1673ffffffffffffffffffffffffffffffffffffffff16815260200190815260200160002060020160009054906101000a900460ff161515141515610af357600080fd5b60606040519081016040528083815260200182815260200160011515815250600160008573ffffffffffffffffffffffffffffffffffffffff1673ffffffffffffffffffffffffffffffffffffffff1681526020019081526020016000206000820151816000019080519060200190610b6d929190611307565b506020820151816001019080519060200190610b8a929190611307565b5060408201518160020160006101000a81548160ff0219169083151502179055509050508273ffffffffffffffffffffffffffffffffffffffff167f12cb4e00ef2ec491dee87d92544cf6e8ce2a07afad6d32cc7f9b042cd3b712338383604051808060200180602001838103835285818151815260200191508051906020019080838360005b83811015610c2c578082015181840152602081019050610c11565b50505050905090810190601f168015610c595780820380516001836020036101000a031916815260200191505b50838103825284818151815260200191508051906020019080838360005b83811015610c92578082015181840152602081019050610c77565b50505050905090810190601f168015610cbf5780820380516001836020036101000a031916815260200191505b5094505050505060405180910390a2505050565b600160003373ffffffffffffffffffffffffffffffffffffffff1673ffffffffffffffffffffffffffffffffffffffff16815260200190815260200160002060020160009054906101000a900460ff161515610d2e57600080fd5b6000151560036000836effffffffffffffffffffffffffffff19166effffffffffffffffffffffffffffff1916815260200190815260200160002060040160149054906101000a900460ff161515141515610d8857600080fd5b60c060405190810160405280838152602001826effffffffffffffffffffffffffffff191681526020014281526020016301e13380420181526020013373ffffffffffffffffffffffffffffffffffffffff1681526020016001151581525060036000836effffffffffffffffffffffffffffff19166effffffffffffffffffffffffffffff191681526020019081526020016000206000820151816000019080519060200190610e3a929190611307565b5060208201518160010160006101000a81548170ffffffffffffffffffffffffffffffffff02191690836f0100000000000000000000000000000090040217905550604082015181600201556060820151816003015560808201518160040160006101000a81548173ffffffffffffffffffffffffffffffffffffffff021916908373ffffffffffffffffffffffffffffffffffffffff16021790555060a08201518160040160146101000a81548160ff0219169083151502179055509050503373ffffffffffffffffffffffffffffffffffffffff16816effffffffffffffffffffffffffffff19167f7c8ea0081fd155ec18c6d37ce8cde52e4ea5f811a5723ef7ad7d44e9d72963b884426301e1338042016040518080602001848152602001838152602001828103825285818151815260200191508051906020019080838360005b83811015610f9a578082015181840152602081019050610f7f565b50505050905090810190601f168015610fc75780820380516001836020036101000a031916815260200191505b5094505050505060405180910390a35050565b600080600260003373ffffffffffffffffffffffffffffffffffffffff1673ffffffffffffffffffffffffffffffffffffffff16815260200190815260200160002060020160009054906101000a900460ff16151561103857600080fd5b60036000876effffffffffffffffffffffffffffff19166effffffffffffffffffffffffffffff1916815260200190815260200160002060040160009054906101000a900473ffffffffffffffffffffffffffffffffffffffff169150600260003373ffffffffffffffffffffffffffffffffffffffff1673ffffffffffffffffffffffffffffffffffffffff16815260200190815260200160002060030160008373ffffffffffffffffffffffffffffffffffffffff1673ffffffffffffffffffffffffffffffffffffffff16815260200190815260200160002060009054906101000a900460ff1690508015801561116b57504260036000886effffffffffffffffffffffffffffff19166effffffffffffffffffffffffffffff1916815260200190815260200160002060030154115b156111b057856effffffffffffffffffffffffffffff19167f41bb455d5268af3e58d62b8c709b586756bf0d445a2c4b8c38d04acd449a569560405160405180910390a25b3373ffffffffffffffffffffffffffffffffffffffff16866effffffffffffffffffffffffffffff19167fd6491bcba78c43d485f859194a83d74bd006f5435719f002adf716f40c1c5165838842898960405180861515151581526020018060200185815260200180602001848152602001838103835287818151815260200191508051906020019080838360005b8381101561125a57808201518184015260208101905061123f565b50505050905090810190601f1680156112875780820380516001836020036101000a031916815260200191505b50838103825285818151815260200191508051906020019080838360005b838110156112c05780820151818401526020810190506112a5565b50505050905090810190601f1680156112ed5780820380516001836020036101000a031916815260200191505b5097505050505050505060405180910390a3505050505050565b828054600181600116156101000203166002900490600052602060002090601f016020900481019282601f1061134857805160ff1916838001178555611376565b82800160010185558215611376579182015b8281111561137557825182559160200191906001019061135a565b5b5090506113839190611387565b5090565b6113a991905b808211156113a557600081600090555060010161138d565b5090565b905600a165627a7a723058205886769b5aa08e0d6e822a634ca14bab159cf7c7c6b1018d9965f18113b56cdf0029",
  "source": "pragma solidity ^0.4.24;\n\ncontract CUR {\n    struct Manufacturer {\n        string name;\n        string logo;\n        bool exists;\n    }\n\n    struct Car {\n        string model;\n        bytes17 VIN;\n        uint dateCreated;\n        uint warrantyUntil;\n        address manufacturerAddress;\n        bool exists;\n    }\n\n    struct Service {\n        string name;\n        string serviceAddress;\n        bool exists;\n        mapping(address => bool) authorizedManufacturers;\n    }\n\n    address private owner;\n    mapping(address => Manufacturer) manufacturers;\n    mapping(address => Service) services;\n    mapping(bytes17 => Car) cars;\n\n    constructor() public {\n        owner = msg.sender;\n    }\n\n    event carCreated(string model, bytes17 indexed VIN, address indexed manufaturerAddress, uint dateCreated, uint warrantyUntil);\n    event carRepaired(bytes17 indexed VIN, address indexed repairService, bool authorised, string documentLink, uint date,\n        string details, uint mileage);\n    event manufacturerCreated(address indexed _address, string name, string logo);\n    event serviceCreated(address _address, string name, string serviceLocation);\n    event serviceAuthorized(address indexed serviceAddress, address indexed manufaturerAddress);\n    event warrantyCanceled(bytes17 indexed VIN);\n\n    modifier isOwner() {\n        require(msg.sender == owner);\n        _;\n    }\n\n    modifier isManufacturer() {\n        require(manufacturers[msg.sender].exists);\n        _;\n    }\n\n    modifier isService() {\n        require(services[msg.sender].exists);\n        _;\n    }\n\n    function isContractOwner() view public returns (bool) {\n        return msg.sender == owner;\n    }\n\n    function isManufacturerAddress() view public returns (bool) {\n        return manufacturers[msg.sender].exists;\n    }\n\n    function isServiceAddress() view public returns (bool) {\n        return services[msg.sender].exists;\n    }\n\n    function createManufacturer(address _address, string _name, string _logo) isOwner public {\n        require(manufacturers[_address].exists == false);\n        manufacturers[_address] = Manufacturer({name : _name, exists : true, logo : _logo});\n        emit manufacturerCreated(_address, _name, _logo);\n    }\n\n    function newCar(string _model, bytes17 _VIN) public isManufacturer {\n        require(cars[_VIN].exists == false);\n        cars[_VIN] = Car({\n            model : _model,\n            VIN : _VIN,\n            manufacturerAddress : msg.sender,\n            exists : true,\n            dateCreated : now,\n            warrantyUntil : now + 365 days\n            });\n        emit carCreated(_model, _VIN, msg.sender, now, now + 365 days);\n    }\n\n    function newService(string _name, string _serviceAddress) public {\n        require(services[msg.sender].exists == false);\n        services[msg.sender] = Service({name : _name, exists : true, serviceAddress : _serviceAddress});\n        if(manufacturers[msg.sender].exists) {\n            services[msg.sender].authorizedManufacturers[msg.sender] = true;\n            emit serviceAuthorized(msg.sender, msg.sender);\n        }\n        emit serviceCreated(msg.sender, _name, _serviceAddress);\n    }\n\n    function verifyService(address _serviceAddress) public isManufacturer {\n        services[_serviceAddress].authorizedManufacturers[msg.sender] = true;\n        emit serviceAuthorized(_serviceAddress, msg.sender);\n    }\n\n    function repairCar(bytes17 _carVIN, string documentLink, string _details, uint mileage) isService public {\n        address carManufacturer = cars[_carVIN].manufacturerAddress;\n        bool isAuthorizedService = services[msg.sender].authorizedManufacturers[carManufacturer];\n        if (!isAuthorizedService && cars[_carVIN].warrantyUntil > block.timestamp) {\n            emit warrantyCanceled(_carVIN);\n        }\n        emit carRepaired(_carVIN, msg.sender, isAuthorizedService, documentLink, block.timestamp,\n            _details, mileage);\n    }\n}",
  "sourcePath": "/Users/production/dApp/contracts/CUR.sol",
  "compiler": {
    "name": "solc",
    "version": "0.4.24+commit.e67f0147.Emscripten.clang"
  },
  "schemaVersion": "2.0.1",
  "updatedAt": "2018-07-14T10:45:18.253Z"
}